{
  "contractName": "ICOCrowdsale",
  "abi": [
    {
      "constant": true,
      "inputs": [],
      "name": "rate",
      "outputs": [
        {
          "name": "",
          "type": "uint256"
        }
      ],
      "payable": false,
      "stateMutability": "view",
      "type": "function"
    },
    {
      "constant": true,
      "inputs": [],
      "name": "endTime",
      "outputs": [
        {
          "name": "",
          "type": "uint256"
        }
      ],
      "payable": false,
      "stateMutability": "view",
      "type": "function"
    },
    {
      "constant": true,
      "inputs": [],
      "name": "cap",
      "outputs": [
        {
          "name": "",
          "type": "uint256"
        }
      ],
      "payable": false,
      "stateMutability": "view",
      "type": "function"
    },
    {
      "constant": true,
      "inputs": [],
      "name": "goal",
      "outputs": [
        {
          "name": "",
          "type": "uint256"
        }
      ],
      "payable": false,
      "stateMutability": "view",
      "type": "function"
    },
    {
      "constant": true,
      "inputs": [],
      "name": "weiRaised",
      "outputs": [
        {
          "name": "",
          "type": "uint256"
        }
      ],
      "payable": false,
      "stateMutability": "view",
      "type": "function"
    },
    {
      "constant": false,
      "inputs": [],
      "name": "finalize",
      "outputs": [],
      "payable": false,
      "stateMutability": "nonpayable",
      "type": "function"
    },
    {
      "constant": true,
      "inputs": [],
      "name": "tokensForEcosystem",
      "outputs": [
        {
          "name": "",
          "type": "uint256"
        }
      ],
      "payable": false,
      "stateMutability": "view",
      "type": "function"
    },
    {
      "constant": true,
      "inputs": [],
      "name": "wallet",
      "outputs": [
        {
          "name": "",
          "type": "address"
        }
      ],
      "payable": false,
      "stateMutability": "view",
      "type": "function"
    },
    {
      "constant": true,
      "inputs": [],
      "name": "totalTokensForSale",
      "outputs": [
        {
          "name": "",
          "type": "uint256"
        }
      ],
      "payable": false,
      "stateMutability": "view",
      "type": "function"
    },
    {
      "constant": true,
      "inputs": [],
      "name": "tokensForBounty",
      "outputs": [
        {
          "name": "",
          "type": "uint256"
        }
      ],
      "payable": false,
      "stateMutability": "view",
      "type": "function"
    },
    {
      "constant": true,
      "inputs": [],
      "name": "startTime",
      "outputs": [
        {
          "name": "",
          "type": "uint256"
        }
      ],
      "payable": false,
      "stateMutability": "view",
      "type": "function"
    },
    {
      "constant": true,
      "inputs": [],
      "name": "goalReached",
      "outputs": [
        {
          "name": "",
          "type": "bool"
        }
      ],
      "payable": false,
      "stateMutability": "view",
      "type": "function"
    },
    {
      "constant": true,
      "inputs": [],
      "name": "isFinalized",
      "outputs": [
        {
          "name": "",
          "type": "bool"
        }
      ],
      "payable": false,
      "stateMutability": "view",
      "type": "function"
    },
    {
      "constant": true,
      "inputs": [],
      "name": "owner",
      "outputs": [
        {
          "name": "",
          "type": "address"
        }
      ],
      "payable": false,
      "stateMutability": "view",
      "type": "function"
    },
    {
      "constant": true,
      "inputs": [],
      "name": "totalWeiRaisedDuringPreICO",
      "outputs": [
        {
          "name": "",
          "type": "uint256"
        }
      ],
      "payable": false,
      "stateMutability": "view",
      "type": "function"
    },
    {
      "constant": false,
      "inputs": [],
      "name": "claimRefund",
      "outputs": [],
      "payable": false,
      "stateMutability": "nonpayable",
      "type": "function"
    },
    {
      "constant": true,
      "inputs": [],
      "name": "totalTokensForSaleDuringPreICO",
      "outputs": [
        {
          "name": "",
          "type": "uint256"
        }
      ],
      "payable": false,
      "stateMutability": "view",
      "type": "function"
    },
    {
      "constant": true,
      "inputs": [],
      "name": "stage",
      "outputs": [
        {
          "name": "",
          "type": "uint8"
        }
      ],
      "payable": false,
      "stateMutability": "view",
      "type": "function"
    },
    {
      "constant": true,
      "inputs": [],
      "name": "maxTokens",
      "outputs": [
        {
          "name": "",
          "type": "uint256"
        }
      ],
      "payable": false,
      "stateMutability": "view",
      "type": "function"
    },
    {
      "constant": false,
      "inputs": [
        {
          "name": "beneficiary",
          "type": "address"
        }
      ],
      "name": "buyTokens",
      "outputs": [],
      "payable": true,
      "stateMutability": "payable",
      "type": "function"
    },
    {
      "constant": true,
      "inputs": [],
      "name": "hasEnded",
      "outputs": [
        {
          "name": "",
          "type": "bool"
        }
      ],
      "payable": false,
      "stateMutability": "view",
      "type": "function"
    },
    {
      "constant": false,
      "inputs": [
        {
          "name": "newOwner",
          "type": "address"
        }
      ],
      "name": "transferOwnership",
      "outputs": [],
      "payable": false,
      "stateMutability": "nonpayable",
      "type": "function"
    },
    {
      "constant": true,
      "inputs": [],
      "name": "vault",
      "outputs": [
        {
          "name": "",
          "type": "address"
        }
      ],
      "payable": false,
      "stateMutability": "view",
      "type": "function"
    },
    {
      "constant": true,
      "inputs": [],
      "name": "token",
      "outputs": [
        {
          "name": "",
          "type": "address"
        }
      ],
      "payable": false,
      "stateMutability": "view",
      "type": "function"
    },
    {
      "constant": true,
      "inputs": [],
      "name": "tokensForTeam",
      "outputs": [
        {
          "name": "",
          "type": "uint256"
        }
      ],
      "payable": false,
      "stateMutability": "view",
      "type": "function"
    },
    {
      "inputs": [
        {
          "name": "_startTime",
          "type": "uint256"
        },
        {
          "name": "_endTime",
          "type": "uint256"
        },
        {
          "name": "_rate",
          "type": "uint256"
        },
        {
          "name": "_wallet",
          "type": "address"
        },
        {
          "name": "_goal",
          "type": "uint256"
        },
        {
          "name": "_cap",
          "type": "uint256"
        }
      ],
      "payable": false,
      "stateMutability": "nonpayable",
      "type": "constructor"
    },
    {
      "payable": true,
      "stateMutability": "payable",
      "type": "fallback"
    },
    {
      "anonymous": false,
      "inputs": [
        {
          "indexed": false,
          "name": "text",
          "type": "string"
        }
      ],
      "name": "EthTransferred",
      "type": "event"
    },
    {
      "anonymous": false,
      "inputs": [
        {
          "indexed": false,
          "name": "text",
          "type": "string"
        }
      ],
      "name": "EthRefunded",
      "type": "event"
    },
    {
      "anonymous": false,
      "inputs": [],
      "name": "Finalized",
      "type": "event"
    },
    {
      "anonymous": false,
      "inputs": [
        {
          "indexed": true,
          "name": "previousOwner",
          "type": "address"
        },
        {
          "indexed": true,
          "name": "newOwner",
          "type": "address"
        }
      ],
      "name": "OwnershipTransferred",
      "type": "event"
    },
    {
      "anonymous": false,
      "inputs": [
        {
          "indexed": true,
          "name": "purchaser",
          "type": "address"
        },
        {
          "indexed": true,
          "name": "beneficiary",
          "type": "address"
        },
        {
          "indexed": false,
          "name": "value",
          "type": "uint256"
        },
        {
          "indexed": false,
          "name": "amount",
          "type": "uint256"
        }
      ],
      "name": "TokenPurchase",
      "type": "event"
    },
    {
      "constant": false,
      "inputs": [
        {
          "name": "value",
          "type": "uint256"
        }
      ],
      "name": "setCrowdsaleStage",
      "outputs": [],
      "payable": false,
      "stateMutability": "nonpayable",
      "type": "function"
    },
    {
      "constant": false,
      "inputs": [
        {
          "name": "_teamFund",
          "type": "address"
        },
        {
          "name": "_ecosystemFund",
          "type": "address"
        },
        {
          "name": "_bountyFund",
          "type": "address"
        }
      ],
      "name": "finish",
      "outputs": [],
      "payable": false,
      "stateMutability": "nonpayable",
      "type": "function"
    }
  ],
  "bytecode": "0x60806040526007805460a060020a60ff02199081169091556009805490911690556801158e460913d00000600a819055680340aad21b3b700000600b55678ac7230489e80000600c819055600d55600e5568056bc75e2d63100000600f553480156200006a57600080fd5b5060405160c080620025c783398101604090815281516020830151918301516060840151608085015160a0909501519294919290919081818787878783831015620000b457600080fd5b60008211620000c257600080fd5b600160a060020a0381161515620000d857600080fd5b620000eb640100000000620001d9810204565b60008054600160a060020a0319908116600160a060020a039384161782556001969096556002949094556004929092556003805490941691161790915581116200013457600080fd5b60065560078054600160a060020a03191633179055600081116200015757600080fd5b600354600160a060020a03166200016d62000208565b600160a060020a03909116815260405190819003602001906000f0801580156200019b573d6000803e3d6000fd5b5060098054600160a060020a031916600160a060020a039290921691909117905560085580821115620001cd57600080fd5b5050505050506200022a565b6000620001e562000219565b604051809103906000f08015801562000202573d6000803e3d6000fd5b50905090565b6040516105fe806200129183390190565b604051610d38806200188f83390190565b611057806200023a6000396000f3006080604052600436106101455763ffffffff60e060020a6000350416632c4e722e81146102df5780633197cbb614610306578063355274ea1461031b57806340193883146103305780634042b66f146103455780634bb278f31461035a5780634c4cfc3b14610371578063521eb2731461038657806360219c7b146103b7578063644280e2146103cc57806378e97925146103e15780637d3d6522146103f65780637e02bb0f1461041f5780638d4e40831461044c5780638da5cb5b14610461578063a997f82f14610476578063abe8014a1461048e578063b5545a3c146104a3578063c02aaea1146104b8578063c040e6b8146104cd578063e831574214610506578063ec8ac4d81461051b578063ecb70fb71461052f578063f2fde38b14610544578063fbfa77cf14610565578063fc0c546a1461057a578063fde83a341461058f575b600061015c600454346105a490919063ffffffff16565b9050600060095460a060020a900460ff16600181111561017857fe5b1480156102055750600a54816000809054906101000a9004600160a060020a0316600160a060020a03166318160ddd6040518163ffffffff1660e060020a028152600401602060405180830381600087803b1580156101d657600080fd5b505af11580156101ea573d6000803e3d6000fd5b505050506040513d602081101561020057600080fd5b505101115b1561029c5760405133903480156108fc02916000818181858888f19350505050158015610236573d6000803e3d6000fd5b506040805160208082526015908201527f50726549434f206973206f7665722074617267657400000000000000000000008183015290517fc0283f9c45b2118c7ec26e4f4bf06fc486f94a186fb38dc5dff372d9cb709d379181900360600190a16102dc565b6102a5336105da565b600060095460a060020a900460ff1660018111156102bf57fe5b14156102dc576010546102d8903463ffffffff61071216565b6010555b50005b3480156102eb57600080fd5b506102f4610721565b60408051918252519081900360200190f35b34801561031257600080fd5b506102f4610727565b34801561032757600080fd5b506102f461072d565b34801561033c57600080fd5b506102f4610733565b34801561035157600080fd5b506102f4610739565b34801561036657600080fd5b5061036f61073f565b005b34801561037d57600080fd5b506102f46107d7565b34801561039257600080fd5b5061039b6107dd565b60408051600160a060020a039092168252519081900360200190f35b3480156103c357600080fd5b506102f46107ec565b3480156103d857600080fd5b506102f46107f2565b3480156103ed57600080fd5b506102f46107f8565b34801561040257600080fd5b5061040b6107fe565b604080519115158252519081900360200190f35b34801561042b57600080fd5b5061036f600160a060020a0360043581169060243581169060443516610809565b34801561045857600080fd5b5061040b610a98565b34801561046d57600080fd5b5061039b610aa8565b34801561048257600080fd5b5061036f600435610ab7565b34801561049a57600080fd5b506102f4610b3c565b3480156104af57600080fd5b5061036f610b42565b3480156104c457600080fd5b506102f4610beb565b3480156104d957600080fd5b506104e2610bf1565b604051808260018111156104f257fe5b60ff16815260200191505060405180910390f35b34801561051257600080fd5b506102f4610c01565b61036f600160a060020a03600435166105da565b34801561053b57600080fd5b5061040b610c07565b34801561055057600080fd5b5061036f600160a060020a0360043516610c28565b34801561057157600080fd5b5061039b610cbd565b34801561058657600080fd5b5061039b610ccc565b34801561059b57600080fd5b506102f4610cdb565b6000808315156105b757600091506105d3565b508282028284828115156105c757fe5b04146105cf57fe5b8091505b5092915050565b600080600160a060020a03831615156105f257600080fd5b6105fa610ce1565b151561060557600080fd5b60045434925061061c90839063ffffffff6105a416565b600554909150610632908363ffffffff61071216565b600555600080546040805160e060020a6340c10f19028152600160a060020a03878116600483015260248201869052915191909216926340c10f1992604480820193602093909283900390910190829087803b15801561069157600080fd5b505af11580156106a5573d6000803e3d6000fd5b505050506040513d60208110156106bb57600080fd5b505060408051838152602081018390528151600160a060020a0386169233927f623b3804fa71d67900d064613da8f94b9617215ee90799290593e1745087ad18929081900390910190a361070d610d14565b505050565b6000828201838110156105cf57fe5b60045481565b60025481565b60065481565b60085481565b60055481565b600754600160a060020a0316331461075657600080fd5b60075460a060020a900460ff161561076d57600080fd5b610775610c07565b151561078057600080fd5b610788610e83565b6040517f6823b073d48d6e3a7d385eeb601452d680e74bb46afe3255a7d778f3a9b1768190600090a16007805474ff0000000000000000000000000000000000000000191660a060020a179055565b600e5481565b600354600160a060020a031681565b600b5481565b600c5481565b60015481565b600854600554101590565b6007546000908190600160a060020a0316331461082557600080fd5b60075460a060020a900460ff161561083c57600080fd5b6000809054906101000a9004600160a060020a0316600160a060020a03166318160ddd6040518163ffffffff1660e060020a028152600401602060405180830381600087803b15801561088e57600080fd5b505af11580156108a2573d6000803e3d6000fd5b505050506040513d60208110156108b857600080fd5b5051600f5490925082106108cb57600080fd5b81600b5403905060008111156108e457600e8054820190555b60008054600d546040805160e060020a6340c10f19028152600160a060020a038a811660048301526024820193909352905191909216926340c10f1992604480820193602093909283900390910190829087803b15801561094457600080fd5b505af1158015610958573d6000803e3d6000fd5b505050506040513d602081101561096e57600080fd5b505060008054600e546040805160e060020a6340c10f19028152600160a060020a0389811660048301526024820193909352905191909216926340c10f1992604480820193602093909283900390910190829087803b1580156109d057600080fd5b505af11580156109e4573d6000803e3d6000fd5b505050506040513d60208110156109fa57600080fd5b505060008054600c546040805160e060020a6340c10f19028152600160a060020a0388811660048301526024820193909352905191909216926340c10f1992604480820193602093909283900390910190829087803b158015610a5c57600080fd5b505af1158015610a70573d6000803e3d6000fd5b505050506040513d6020811015610a8657600080fd5b50610a91905061073f565b5050505050565b60075460a060020a900460ff1681565b600754600160a060020a031681565b600754600160a060020a03163314610ace57600080fd5b801515610b02576009805474ff000000000000000000000000000000000000000019169055610afd6005610f74565b610b39565b6001811415610b39576009805474ff0000000000000000000000000000000000000000191660a060020a179055610b396002610f74565b50565b60105481565b60075460a060020a900460ff161515610b5a57600080fd5b610b626107fe565b15610b6c57600080fd5b600954604080517ffa89401a0000000000000000000000000000000000000000000000000000000081523360048201529051600160a060020a039092169163fa89401a9160248082019260009290919082900301818387803b158015610bd157600080fd5b505af1158015610be5573d6000803e3d6000fd5b50505050565b600a5481565b60095460a060020a900460ff1681565b600f5481565b6006546005546000911115610c1a610f79565b80610c225750805b91505090565b600754600160a060020a03163314610c3f57600080fd5b600160a060020a0381161515610c5457600080fd5b600754604051600160a060020a038084169216907f8be0079c531659141344cd1fd0a4f28419497f9722a3daafe3b4186f6b6457e090600090a36007805473ffffffffffffffffffffffffffffffffffffffff1916600160a060020a0392909216919091179055565b600954600160a060020a031681565b600054600160a060020a031681565b600d5481565b600080600654610cfc3460055461071290919063ffffffff16565b11159050610d08610f81565b8015610c225750919050565b600060095460a060020a900460ff166001811115610d2e57fe5b1415610dd357600354604051600160a060020a03909116903480156108fc02916000818181858888f19350505050158015610d6d573d6000803e3d6000fd5b50604080516020808252601a908201527f666f7277617264696e672066756e647320746f2077616c6c65740000000000008183015290517f47af8c4076c54a76f613f82e4296a2c5e2167698d368157a82e62398393e345e9181900360600190a1610e81565b600160095460a060020a900460ff166001811115610ded57fe5b1415610e81576040805160208082526024908201527f666f7277617264696e672066756e647320746f20726566756e6461626c652076818301527f61756c7400000000000000000000000000000000000000000000000000000000606082015290517f47af8c4076c54a76f613f82e4296a2c5e2167698d368157a82e62398393e345e9181900360800190a1610e81610fb1565b565b610e8b6107fe565b15610f0057600960009054906101000a9004600160a060020a0316600160a060020a03166343d726d66040518163ffffffff1660e060020a028152600401600060405180830381600087803b158015610ee357600080fd5b505af1158015610ef7573d6000803e3d6000fd5b50505050610f6c565b600960009054906101000a9004600160a060020a0316600160a060020a0316638c52dc416040518163ffffffff1660e060020a028152600401600060405180830381600087803b158015610f5357600080fd5b505af1158015610f67573d6000803e3d6000fd5b505050505b610e81610e81565b600455565b600254421190565b60008060006001544210158015610f9a57506002544211155b915050341515818015610faa5750805b9250505090565b600954604080517ff340fa010000000000000000000000000000000000000000000000000000000081523360048201529051600160a060020a039092169163f340fa01913491602480830192600092919082900301818588803b15801561101757600080fd5b505af1158015610a91573d6000803e3d6000fd00a165627a7a7230582043fcb78f7a232a6978c210ca04aa10b2c0725b646e3e03f3ed764a2b9b19f4f80029608060405234801561001057600080fd5b506040516020806105fe833981016040525160008054600160a060020a03191633179055600160a060020a038116151561004957600080fd5b60028054600160a060020a031916600160a060020a03929092169190911760a060020a60ff021916905561057c806100826000396000f3006080604052600436106100985763ffffffff7c010000000000000000000000000000000000000000000000000000000060003504166343d726d6811461009d578063521eb273146100b45780638c52dc41146100e55780638da5cb5b146100fa578063c19d93fb1461010f578063cb13cddb14610148578063f2fde38b1461017b578063f340fa011461019c578063fa89401a146101b0575b600080fd5b3480156100a957600080fd5b506100b26101d1565b005b3480156100c057600080fd5b506100c96102a7565b60408051600160a060020a039092168252519081900360200190f35b3480156100f157600080fd5b506100b26102b6565b34801561010657600080fd5b506100c9610340565b34801561011b57600080fd5b5061012461034f565b6040518082600281111561013457fe5b60ff16815260200191505060405180910390f35b34801561015457600080fd5b50610169600160a060020a036004351661035f565b60408051918252519081900360200190f35b34801561018757600080fd5b506100b2600160a060020a0360043516610371565b6100b2600160a060020a0360043516610405565b3480156101bc57600080fd5b506100b2600160a060020a0360043516610485565b600054600160a060020a031633146101e857600080fd5b60006002805460a060020a900460ff169081111561020257fe5b1461020c57600080fd5b6002805474ff00000000000000000000000000000000000000001916740200000000000000000000000000000000000000001790556040517f1cdde67b72a90f19919ac732a437ac2f7a10fc128d28c2a6e525d89ce5cd9d3a90600090a1600254604051600160a060020a0390911690303180156108fc02916000818181858888f193505050501580156102a4573d6000803e3d6000fd5b50565b600254600160a060020a031681565b600054600160a060020a031633146102cd57600080fd5b60006002805460a060020a900460ff16908111156102e757fe5b146102f157600080fd5b6002805474ff0000000000000000000000000000000000000000191660a060020a1790556040517f599d8e5a83cffb867d051598c4d70e805d59802d8081c1c7d6dffc5b6aca2b8990600090a1565b600054600160a060020a031681565b60025460a060020a900460ff1681565b60016020526000908152604090205481565b600054600160a060020a0316331461038857600080fd5b600160a060020a038116151561039d57600080fd5b60008054604051600160a060020a03808516939216917f8be0079c531659141344cd1fd0a4f28419497f9722a3daafe3b4186f6b6457e091a36000805473ffffffffffffffffffffffffffffffffffffffff1916600160a060020a0392909216919091179055565b600054600160a060020a0316331461041c57600080fd5b60006002805460a060020a900460ff169081111561043657fe5b1461044057600080fd5b600160a060020a038116600090815260016020526040902054610469903463ffffffff61053a16565b600160a060020a03909116600090815260016020526040902055565b600060016002805460a060020a900460ff16908111156104a157fe5b146104ab57600080fd5b50600160a060020a038116600081815260016020526040808220805490839055905190929183156108fc02918491818181858888f193505050501580156104f6573d6000803e3d6000fd5b50604080518281529051600160a060020a038416917fd7dee2702d63ad89917b6a4da9981c90c4d24f8c2bdfd64c604ecae57d8d0651919081900360200190a25050565b60008282018381101561054957fe5b93925050505600a165627a7a7230582080d3aad804e44271b0c44cc5dd96cc0e4e0ad588ff58b4e156f06e4ba28df4d200296003805460a060020a60ff021916905560c0604052600960808190527f49434f20746f6b656e000000000000000000000000000000000000000000000060a090815261004e91600491906100b0565b506040805180820190915260048082527f4149434f000000000000000000000000000000000000000000000000000000006020909201918252610093916005916100b0565b50601260065560038054600160a060020a0319163317905561014b565b828054600181600116156101000203166002900490600052602060002090601f016020900481019282601f106100f157805160ff191683800117855561011e565b8280016001018555821561011e579182015b8281111561011e578251825591602001919060010190610103565b5061012a92915061012e565b5090565b61014891905b8082111561012a5760008155600101610134565b90565b610bde8061015a6000396000f3006080604052600436106100e55763ffffffff7c010000000000000000000000000000000000000000000000000000000060003504166305d2035b81146100ea57806306fdde0314610113578063095ea7b31461019d57806318160ddd146101c157806323b872dd146101e8578063313ce5671461021257806340c10f1914610227578063661884631461024b57806370a082311461026f5780637d64bcb4146102905780638da5cb5b146102a557806395d89b41146102d6578063a9059cbb146102eb578063d73dd6231461030f578063dd62ed3e14610333578063f2fde38b1461035a575b600080fd5b3480156100f657600080fd5b506100ff61037d565b604080519115158252519081900360200190f35b34801561011f57600080fd5b5061012861039e565b6040805160208082528351818301528351919283929083019185019080838360005b8381101561016257818101518382015260200161014a565b50505050905090810190601f16801561018f5780820380516001836020036101000a031916815260200191505b509250505060405180910390f35b3480156101a957600080fd5b506100ff600160a060020a036004351660243561042c565b3480156101cd57600080fd5b506101d6610492565b60408051918252519081900360200190f35b3480156101f457600080fd5b506100ff600160a060020a0360043581169060243516604435610498565b34801561021e57600080fd5b506101d6610611565b34801561023357600080fd5b506100ff600160a060020a0360043516602435610617565b34801561025757600080fd5b506100ff600160a060020a0360043516602435610733565b34801561027b57600080fd5b506101d6600160a060020a0360043516610823565b34801561029c57600080fd5b506100ff61083e565b3480156102b157600080fd5b506102ba6108e4565b60408051600160a060020a039092168252519081900360200190f35b3480156102e257600080fd5b506101286108f3565b3480156102f757600080fd5b506100ff600160a060020a036004351660243561094e565b34801561031b57600080fd5b506100ff600160a060020a0360043516602435610a31565b34801561033f57600080fd5b506101d6600160a060020a0360043581169060243516610aca565b34801561036657600080fd5b5061037b600160a060020a0360043516610af5565b005b60035474010000000000000000000000000000000000000000900460ff1681565b6004805460408051602060026001851615610100026000190190941693909304601f810184900484028201840190925281815292918301828280156104245780601f106103f957610100808354040283529160200191610424565b820191906000526020600020905b81548152906001019060200180831161040757829003601f168201915b505050505081565b336000818152600260209081526040808320600160a060020a038716808552908352818420869055815186815291519394909390927f8c5be1e5ebec7d5bd14f71427d1e84f3dd0314c0f7b2291e5b200ac8c7c3b925928290030190a350600192915050565b60005481565b6000600160a060020a03831615156104af57600080fd5b600160a060020a0384166000908152600160205260409020548211156104d457600080fd5b600160a060020a038416600090815260026020908152604080832033845290915290205482111561050457600080fd5b600160a060020a03841660009081526001602052604090205461052d908363ffffffff610b8a16565b600160a060020a038086166000908152600160205260408082209390935590851681522054610562908363ffffffff610b9c16565b600160a060020a0380851660009081526001602090815260408083209490945591871681526002825282812033825290915220546105a6908363ffffffff610b8a16565b600160a060020a03808616600081815260026020908152604080832033845282529182902094909455805186815290519287169391927fddf252ad1be2c89b69c2b068fc378daa952ba7f163c4a11628f55a4df523b3ef929181900390910190a35060019392505050565b60065481565b600354600090600160a060020a0316331461063157600080fd5b60035474010000000000000000000000000000000000000000900460ff161561065957600080fd5b60005461066c908363ffffffff610b9c16565b6000908155600160a060020a038416815260016020526040902054610697908363ffffffff610b9c16565b600160a060020a038416600081815260016020908152604091829020939093558051858152905191927f0f6798a560793a54c3bcfe86a93cde1e73087d944c0ea20544137d412139688592918290030190a2604080518381529051600160a060020a038516916000917fddf252ad1be2c89b69c2b068fc378daa952ba7f163c4a11628f55a4df523b3ef9181900360200190a350600192915050565b336000908152600260209081526040808320600160a060020a03861684529091528120548083111561078857336000908152600260209081526040808320600160a060020a03881684529091528120556107bd565b610798818463ffffffff610b8a16565b336000908152600260209081526040808320600160a060020a03891684529091529020555b336000818152600260209081526040808320600160a060020a0389168085529083529281902054815190815290519293927f8c5be1e5ebec7d5bd14f71427d1e84f3dd0314c0f7b2291e5b200ac8c7c3b925929181900390910190a35060019392505050565b600160a060020a031660009081526001602052604090205490565b600354600090600160a060020a0316331461085857600080fd5b60035474010000000000000000000000000000000000000000900460ff161561088057600080fd5b6003805474ff00000000000000000000000000000000000000001916740100000000000000000000000000000000000000001790556040517fae5184fba832cb2b1f702aca6117b8d265eaf03ad33eb133f19dde0f5920fa0890600090a150600190565b600354600160a060020a031681565b6005805460408051602060026001851615610100026000190190941693909304601f810184900484028201840190925281815292918301828280156104245780601f106103f957610100808354040283529160200191610424565b6000600160a060020a038316151561096557600080fd5b3360009081526001602052604090205482111561098157600080fd5b336000908152600160205260409020546109a1908363ffffffff610b8a16565b3360009081526001602052604080822092909255600160a060020a038516815220546109d3908363ffffffff610b9c16565b600160a060020a0384166000818152600160209081526040918290209390935580518581529051919233927fddf252ad1be2c89b69c2b068fc378daa952ba7f163c4a11628f55a4df523b3ef9281900390910190a350600192915050565b336000908152600260209081526040808320600160a060020a0386168452909152812054610a65908363ffffffff610b9c16565b336000818152600260209081526040808320600160a060020a0389168085529083529281902085905580519485525191937f8c5be1e5ebec7d5bd14f71427d1e84f3dd0314c0f7b2291e5b200ac8c7c3b925929081900390910190a350600192915050565b600160a060020a03918216600090815260026020908152604080832093909416825291909152205490565b600354600160a060020a03163314610b0c57600080fd5b600160a060020a0381161515610b2157600080fd5b600354604051600160a060020a038084169216907f8be0079c531659141344cd1fd0a4f28419497f9722a3daafe3b4186f6b6457e090600090a36003805473ffffffffffffffffffffffffffffffffffffffff1916600160a060020a0392909216919091179055565b600082821115610b9657fe5b50900390565b600082820183811015610bab57fe5b93925050505600a165627a7a723058209a8b343411ff9e0a4c4d7c78803c2184ba5b1bff3c294ed8cba9683f21ec22130029",
  "source": "pragma solidity 0.4.24;\r\n\r\nimport \"./ICOToken.sol\";\r\nimport \"zeppelin-solidity/contracts/crowdsale/CappedCrowdsale.sol\";\r\nimport \"zeppelin-solidity/contracts/crowdsale/RefundableCrowdsale.sol\";\r\n\r\ncontract ICOCrowdsale is CappedCrowdsale, RefundableCrowdsale {\r\n\r\n    enum CrowdsaleStage { PreICO, ICO }\r\n\r\n    CrowdsaleStage public stage = CrowdsaleStage.PreICO;\r\n\r\n    uint public totalTokensForSaleDuringPreICO  = 20000000000000000000;\r\n    uint public totalTokensForSale              = 60000000000000000000;\r\n    uint public tokensForBounty                 = 10000000000000000000;\r\n    uint public tokensForTeam                   = 10000000000000000000;\r\n    uint public tokensForEcosystem              = 20000000000000000000;\r\n    uint public maxTokens                       = 100000000000000000000;\r\n\r\n    uint public totalWeiRaisedDuringPreICO;\r\n\r\n    event EthTransferred(string text);\r\n    event EthRefunded(string text);\r\n\r\n    constructor(\r\n        uint _startTime,\r\n        uint _endTime,\r\n        uint _rate, // exchange rate \r\n        address _wallet,\r\n        uint _goal,\r\n        uint _cap\r\n    )\r\n    CappedCrowdsale(_cap)\r\n    FinalizableCrowdsale()\r\n    RefundableCrowdsale(_goal)\r\n    Crowdsale(_startTime, _endTime, _rate, _wallet) public {\r\n        require(_goal <= _cap);\r\n    }\r\n\r\n    function createTokenContract() internal returns (MintableToken) {\r\n        return new ICOToken();\r\n    }\r\n\r\n    function setCurrentRate(uint _rate) private {\r\n        rate = _rate;\r\n    }\r\n\r\n    function setCrowdsaleStage(uint value) public onlyOwner {\r\n        if (value == uint(CrowdsaleStage.PreICO)) {\r\n            stage = CrowdsaleStage.PreICO;\r\n            setCurrentRate(5);\r\n        } else if (value == uint(CrowdsaleStage.ICO)) {\r\n            stage = CrowdsaleStage.ICO;\r\n            setCurrentRate(2);\r\n        }\r\n    }\r\n\r\n    function () external payable {\r\n        uint tokensThatWillBeMintedAfterPurchase = msg.value.mul(rate);\r\n\r\n        if ((stage == CrowdsaleStage.PreICO) && \r\n            (token.totalSupply() + tokensThatWillBeMintedAfterPurchase > totalTokensForSaleDuringPreICO)) {\r\n                msg.sender.transfer(msg.value);\r\n                emit EthRefunded(\"PreICO is over target\");\r\n                return;\r\n        }\r\n\r\n        buyTokens(msg.sender);\r\n\r\n        if (stage == CrowdsaleStage.PreICO) {\r\n            totalWeiRaisedDuringPreICO = totalWeiRaisedDuringPreICO.add(msg.value);\r\n        }\r\n    }\r\n\r\n    function forwardFunds() internal {\r\n        if (stage == CrowdsaleStage.PreICO) {\r\n            wallet.transfer(msg.value);\r\n            emit EthTransferred(\"forwarding funds to wallet\");\r\n        } else if (stage == CrowdsaleStage.ICO) {\r\n            emit EthTransferred(\"forwarding funds to refundable vault\");\r\n            super.forwardFunds();\r\n        }\r\n    }\r\n\r\n    function finish(address _teamFund, address _ecosystemFund, address _bountyFund) public onlyOwner {\r\n        require(!isFinalized);\r\n        uint alreadyMinted = token.totalSupply();\r\n        require(alreadyMinted < maxTokens);\r\n\r\n        uint unsoldTokens = totalTokensForSale - alreadyMinted;\r\n        if (unsoldTokens > 0) {\r\n            tokensForEcosystem = tokensForEcosystem + unsoldTokens;\r\n        }\r\n\r\n        token.mint(_teamFund, tokensForTeam);\r\n        token.mint(_ecosystemFund, tokensForEcosystem);\r\n        token.mint(_bountyFund, tokensForBounty);\r\n\r\n        finalize();\r\n    }\r\n}",
  "sourcePath": "/Users/antonynguyen/work/ico/contracts/ICOCrowdsale.sol",
  "compiler": {
    "name": "solc",
    "version": "0.4.24+commit.e67f0147.Emscripten.clang"
  },
  "schemaVersion": "2.0.1",
  "updatedAt": "2018-07-22T08:16:04.384Z"
}